{
  "_format": "hh-sol-artifact-1",
  "contractName": "KaliWhitelistManager",
  "sourceName": "contracts/KaliWhiteListManager.sol",
  "abi": [
    {
      "inputs": [],
      "stateMutability": "nonpayable",
      "type": "constructor"
    },
    {
      "inputs": [],
      "name": "IdExists",
      "type": "error"
    },
    {
      "inputs": [],
      "name": "InvalidSignature",
      "type": "error"
    },
    {
      "inputs": [],
      "name": "InvalidWhiteList",
      "type": "error"
    },
    {
      "inputs": [],
      "name": "NotOnWhitelist",
      "type": "error"
    },
    {
      "inputs": [],
      "name": "NotOperator",
      "type": "error"
    },
    {
      "inputs": [],
      "name": "NullId",
      "type": "error"
    },
    {
      "inputs": [],
      "name": "SignatureExpired",
      "type": "error"
    },
    {
      "inputs": [],
      "name": "WhitelistClaimed",
      "type": "error"
    },
    {
      "anonymous": false,
      "inputs": [
        {
          "indexed": true,
          "internalType": "uint256",
          "name": "listId",
          "type": "uint256"
        },
        {
          "indexed": true,
          "internalType": "address",
          "name": "account",
          "type": "address"
        },
        {
          "indexed": false,
          "internalType": "bool",
          "name": "approved",
          "type": "bool"
        }
      ],
      "name": "AccountWhitelisted",
      "type": "event"
    },
    {
      "anonymous": false,
      "inputs": [
        {
          "indexed": true,
          "internalType": "uint256",
          "name": "listId",
          "type": "uint256"
        },
        {
          "indexed": false,
          "internalType": "bytes32",
          "name": "merkleRoot",
          "type": "bytes32"
        }
      ],
      "name": "MerkleRootSet",
      "type": "event"
    },
    {
      "anonymous": false,
      "inputs": [
        {
          "indexed": true,
          "internalType": "uint256",
          "name": "listId",
          "type": "uint256"
        },
        {
          "indexed": true,
          "internalType": "address",
          "name": "operator",
          "type": "address"
        }
      ],
      "name": "WhitelistCreated",
      "type": "event"
    },
    {
      "anonymous": false,
      "inputs": [
        {
          "indexed": true,
          "internalType": "uint256",
          "name": "listId",
          "type": "uint256"
        },
        {
          "indexed": true,
          "internalType": "address",
          "name": "account",
          "type": "address"
        }
      ],
      "name": "WhitelistJoined",
      "type": "event"
    },
    {
      "inputs": [],
      "name": "DOMAIN_SEPARATOR",
      "outputs": [
        {
          "internalType": "bytes32",
          "name": "",
          "type": "bytes32"
        }
      ],
      "stateMutability": "view",
      "type": "function"
    },
    {
      "inputs": [
        {
          "internalType": "uint256",
          "name": "listId",
          "type": "uint256"
        },
        {
          "internalType": "address[]",
          "name": "accounts",
          "type": "address[]"
        },
        {
          "internalType": "bytes32",
          "name": "merkleRoot",
          "type": "bytes32"
        }
      ],
      "name": "createWhitelist",
      "outputs": [],
      "stateMutability": "nonpayable",
      "type": "function"
    },
    {
      "inputs": [
        {
          "internalType": "uint256",
          "name": "listId",
          "type": "uint256"
        },
        {
          "internalType": "address",
          "name": "account",
          "type": "address"
        }
      ],
      "name": "isWhitelisted",
      "outputs": [
        {
          "internalType": "bool",
          "name": "",
          "type": "bool"
        }
      ],
      "stateMutability": "view",
      "type": "function"
    },
    {
      "inputs": [
        {
          "internalType": "uint256",
          "name": "listId",
          "type": "uint256"
        },
        {
          "internalType": "address",
          "name": "account",
          "type": "address"
        },
        {
          "internalType": "bytes32[]",
          "name": "merkleProof",
          "type": "bytes32[]"
        }
      ],
      "name": "joinWhitelist",
      "outputs": [],
      "stateMutability": "nonpayable",
      "type": "function"
    },
    {
      "inputs": [
        {
          "internalType": "uint256",
          "name": "",
          "type": "uint256"
        }
      ],
      "name": "merkleRoots",
      "outputs": [
        {
          "internalType": "bytes32",
          "name": "",
          "type": "bytes32"
        }
      ],
      "stateMutability": "view",
      "type": "function"
    },
    {
      "inputs": [
        {
          "internalType": "uint256",
          "name": "",
          "type": "uint256"
        }
      ],
      "name": "operatorOf",
      "outputs": [
        {
          "internalType": "address",
          "name": "",
          "type": "address"
        }
      ],
      "stateMutability": "view",
      "type": "function"
    },
    {
      "inputs": [
        {
          "internalType": "uint256",
          "name": "listId",
          "type": "uint256"
        },
        {
          "internalType": "bytes32",
          "name": "merkleRoot",
          "type": "bytes32"
        }
      ],
      "name": "setMerkleRoot",
      "outputs": [],
      "stateMutability": "nonpayable",
      "type": "function"
    },
    {
      "inputs": [
        {
          "internalType": "uint256",
          "name": "listId",
          "type": "uint256"
        },
        {
          "internalType": "address",
          "name": "account",
          "type": "address"
        },
        {
          "internalType": "bool",
          "name": "approved",
          "type": "bool"
        },
        {
          "internalType": "uint256",
          "name": "deadline",
          "type": "uint256"
        },
        {
          "internalType": "uint8",
          "name": "v",
          "type": "uint8"
        },
        {
          "internalType": "bytes32",
          "name": "r",
          "type": "bytes32"
        },
        {
          "internalType": "bytes32",
          "name": "s",
          "type": "bytes32"
        }
      ],
      "name": "whitelistAccountBySig",
      "outputs": [],
      "stateMutability": "nonpayable",
      "type": "function"
    },
    {
      "inputs": [
        {
          "internalType": "uint256",
          "name": "listId",
          "type": "uint256"
        },
        {
          "internalType": "address[]",
          "name": "accounts",
          "type": "address[]"
        },
        {
          "internalType": "bool[]",
          "name": "approvals",
          "type": "bool[]"
        }
      ],
      "name": "whitelistAccounts",
      "outputs": [],
      "stateMutability": "nonpayable",
      "type": "function"
    },
    {
      "inputs": [
        {
          "internalType": "uint256",
          "name": "",
          "type": "uint256"
        },
        {
          "internalType": "address",
          "name": "",
          "type": "address"
        }
      ],
      "name": "whitelistedAccounts",
      "outputs": [
        {
          "internalType": "bool",
          "name": "",
          "type": "bool"
        }
      ],
      "stateMutability": "view",
      "type": "function"
    }
  ],
  "bytecode": "0x60c06040523480156200001157600080fd5b5046608081815250506200002a6200003760201b60201c565b60a08181525050620001c3565b60007f8b73c3c69bb8fe3d512ecc4cf759cc79239f7b179b0ffacaa9a75d522b39400f6040518060400160405280601481526020017f4b616c6957686974656c6973744d616e61676572000000000000000000000000815250805190602001207fc89efdaa54c0f20c7adf612882df0950f5a951637e0307cdcb4c672f298b8bc64630604051602001620000d09594939291906200011e565b60405160208183030381529060405280519060200120905090565b620000f6816200017b565b82525050565b62000107816200018f565b82525050565b6200011881620001b9565b82525050565b600060a082019050620001356000830188620000fc565b620001446020830187620000fc565b620001536040830186620000fc565b6200016260608301856200010d565b620001716080830184620000eb565b9695505050505050565b6000620001888262000199565b9050919050565b6000819050919050565b600073ffffffffffffffffffffffffffffffffffffffff82169050919050565b6000819050919050565b60805160a0516115fe620001e9600039600061048f0152600061045b01526115fe6000f3fe608060405234801561001057600080fd5b506004361061009e5760003560e01c8063b4c72a2111610066578063b4c72a2114610159578063bcd521bc14610175578063bf59594c146101a5578063bf7de7ef146101c1578063f41875e1146101dd5761009e565b806318712c21146100a357806324bed919146100bf5780633644e515146100db57806371c5ecb1146100f95780637d22c35c14610129575b600080fd5b6100bd60048036038101906100b8919061118b565b61020d565b005b6100d960048036038101906100d49190611096565b6102f8565b005b6100e3610457565b6040516100f09190611317565b60405180910390f35b610113600480360381019061010e9190610f27565b6104b4565b6040516101209190611317565b60405180910390f35b610143600480360381019061013e9190610f50565b6104cc565b60405161015091906112fc565b60405180910390f35b610173600480360381019061016e9190610ff8565b610534565b005b61018f600480360381019061018a9190610f50565b6106ee565b60405161019c91906112fc565b60405180910390f35b6101bf60048036038101906101ba9190610f8c565b61071d565b005b6101db60048036038101906101d6919061111f565b6108c9565b005b6101f760048036038101906101f29190610f27565b610b11565b60405161020491906112e1565b60405180910390f35b60008083815260200190815260200160002060009054906101000a900473ffffffffffffffffffffffffffffffffffffffff1673ffffffffffffffffffffffffffffffffffffffff163373ffffffffffffffffffffffffffffffffffffffff16146102a4576040517f7c214f0400000000000000000000000000000000000000000000000000000000815260040160405180910390fd5b806001600084815260200190815260200160002081905550817fb04b7d6145a7588fdcf339a22877d5965f861c171204fc37688058c5f6c06d3b826040516102ec9190611317565b60405180910390a25050565b60008086815260200190815260200160002060009054906101000a900473ffffffffffffffffffffffffffffffffffffffff1673ffffffffffffffffffffffffffffffffffffffff163373ffffffffffffffffffffffffffffffffffffffff161461038f576040517f7c214f0400000000000000000000000000000000000000000000000000000000815260040160405180910390fd5b60005b8484905081101561044f57610442868686848181106103da577f4e487b7100000000000000000000000000000000000000000000000000000000600052603260045260246000fd5b90506020020160208101906103ef9190610ed5565b858585818110610428577f4e487b7100000000000000000000000000000000000000000000000000000000600052603260045260246000fd5b905060200201602081019061043d9190610efe565b610b44565b8080600101915050610392565b505050505050565b60007f0000000000000000000000000000000000000000000000000000000000000000461461048d57610488610c00565b6104af565b7f00000000000000000000000000000000000000000000000000000000000000005b905090565b60016020528060005260406000206000915090505481565b60006002600084815260200190815260200160002060008373ffffffffffffffffffffffffffffffffffffffff1673ffffffffffffffffffffffffffffffffffffffff16815260200190815260200160002060009054906101000a900460ff16905092915050565b8342111561056e576040517f0819bdcd00000000000000000000000000000000000000000000000000000000815260040160405180910390fd5b6000610578610457565b7f223305279dc2fe45bc45ddc2da120130bfdb577779bce6d83f41e5f7190701f98888886040516020016105af9493929190611332565b604051602081830303815290604052805190602001206040516020016105d69291906112aa565b60405160208183030381529060405280519060200120905060006001828686866040516000815260200160405260405161061394939291906113ca565b6020604051602081039080840390855afa158015610635573d6000803e3d6000fd5b5050506020604051035190506000808a815260200190815260200160002060009054906101000a900473ffffffffffffffffffffffffffffffffffffffff1673ffffffffffffffffffffffffffffffffffffffff168173ffffffffffffffffffffffffffffffffffffffff16146106d8576040517f8baa579f00000000000000000000000000000000000000000000000000000000815260040160405180910390fd5b6106e3898989610b44565b505050505050505050565b60026020528160005260406000206020528060005260406000206000915091509054906101000a900460ff1681565b61072784846104cc565b1561075e576040517fafb3768900000000000000000000000000000000000000000000000000000000815260040160405180910390fd5b6000801b600160008681526020019081526020016000205414156107ae576040517fccfdc84300000000000000000000000000000000000000000000000000000000815260040160405180910390fd5b61083d6001600086815260200190815260200160002054846040516020016107d69190611263565b60405160208183030381529060405280519060200120848480806020026020016040519081016040528093929190818152602001838360200280828437600081840152601f19601f82011690508083019250505050505050610cb29092919063ffffffff16565b610873576040517f522fc3bd00000000000000000000000000000000000000000000000000000000815260040160405180910390fd5b61087f84846001610b44565b8273ffffffffffffffffffffffffffffffffffffffff16847fb3d20bca54d4b069c344c4134a989b1c0857b7062c8ee765edacbceb682c640260405160405180910390a350505050565b6000841415610904576040517fd9ca051200000000000000000000000000000000000000000000000000000000815260040160405180910390fd5b600073ffffffffffffffffffffffffffffffffffffffff1660008086815260200190815260200160002060009054906101000a900473ffffffffffffffffffffffffffffffffffffffff1673ffffffffffffffffffffffffffffffffffffffff161461099c576040517f80a8a73400000000000000000000000000000000000000000000000000000000815260040160405180910390fd5b3360008086815260200190815260200160002060006101000a81548173ffffffffffffffffffffffffffffffffffffffff021916908373ffffffffffffffffffffffffffffffffffffffff16021790555060008383905014610ab25760005b83839050811015610a6c57610a5f85858584818110610a43577f4e487b7100000000000000000000000000000000000000000000000000000000600052603260045260246000fd5b9050602002016020810190610a589190610ed5565b6001610b44565b80806001019150506109fb565b503373ffffffffffffffffffffffffffffffffffffffff16847fcb35a830e6cf5dc5248b3b7114d1b7945368ab798d358d784789259c514cd5e560405160405180910390a35b60008114610b0b57806001600086815260200190815260200160002081905550837fb04b7d6145a7588fdcf339a22877d5965f861c171204fc37688058c5f6c06d3b82604051610b029190611317565b60405180910390a25b50505050565b60006020528060005260406000206000915054906101000a900473ffffffffffffffffffffffffffffffffffffffff1681565b806002600085815260200190815260200160002060008473ffffffffffffffffffffffffffffffffffffffff1673ffffffffffffffffffffffffffffffffffffffff16815260200190815260200160002060006101000a81548160ff0219169083151502179055508173ffffffffffffffffffffffffffffffffffffffff16837f6c013c340e1ef4f57c40269d3ed32d24f1a8db072b0158815d41353e4ae65ed683604051610bf391906112fc565b60405180910390a3505050565b60007f8b73c3c69bb8fe3d512ecc4cf759cc79239f7b179b0ffacaa9a75d522b39400f6040518060400160405280601481526020017f4b616c6957686974656c6973744d616e61676572000000000000000000000000815250805190602001207fc89efdaa54c0f20c7adf612882df0950f5a951637e0307cdcb4c672f298b8bc64630604051602001610c97959493929190611377565b60405160208183030381529060405280519060200120905090565b60008082905060005b8551811015610d80576000868281518110610cff577f4e487b7100000000000000000000000000000000000000000000000000000000600052603260045260246000fd5b60200260200101519050808311610d40578281604051602001610d2392919061127e565b604051602081830303815290604052805190602001209250610d6c565b8083604051602001610d5392919061127e565b6040516020818303038152906040528051906020012092505b508080610d7890611479565b915050610cbb565b508381149150509392505050565b600081359050610d9d81611555565b92915050565b60008083601f840112610db557600080fd5b8235905067ffffffffffffffff811115610dce57600080fd5b602083019150836020820283011115610de657600080fd5b9250929050565b60008083601f840112610dff57600080fd5b8235905067ffffffffffffffff811115610e1857600080fd5b602083019150836020820283011115610e3057600080fd5b9250929050565b60008083601f840112610e4957600080fd5b8235905067ffffffffffffffff811115610e6257600080fd5b602083019150836020820283011115610e7a57600080fd5b9250929050565b600081359050610e908161156c565b92915050565b600081359050610ea581611583565b92915050565b600081359050610eba8161159a565b92915050565b600081359050610ecf816115b1565b92915050565b600060208284031215610ee757600080fd5b6000610ef584828501610d8e565b91505092915050565b600060208284031215610f1057600080fd5b6000610f1e84828501610e81565b91505092915050565b600060208284031215610f3957600080fd5b6000610f4784828501610eab565b91505092915050565b60008060408385031215610f6357600080fd5b6000610f7185828601610eab565b9250506020610f8285828601610d8e565b9150509250929050565b60008060008060608587031215610fa257600080fd5b6000610fb087828801610eab565b9450506020610fc187828801610d8e565b935050604085013567ffffffffffffffff811115610fde57600080fd5b610fea87828801610e37565b925092505092959194509250565b600080600080600080600060e0888a03121561101357600080fd5b60006110218a828b01610eab565b97505060206110328a828b01610d8e565b96505060406110438a828b01610e81565b95505060606110548a828b01610eab565b94505060806110658a828b01610ec0565b93505060a06110768a828b01610e96565b92505060c06110878a828b01610e96565b91505092959891949750929550565b6000806000806000606086880312156110ae57600080fd5b60006110bc88828901610eab565b955050602086013567ffffffffffffffff8111156110d957600080fd5b6110e588828901610da3565b9450945050604086013567ffffffffffffffff81111561110457600080fd5b61111088828901610ded565b92509250509295509295909350565b6000806000806060858703121561113557600080fd5b600061114387828801610eab565b945050602085013567ffffffffffffffff81111561116057600080fd5b61116c87828801610da3565b9350935050604061117f87828801610e96565b91505092959194509250565b6000806040838503121561119e57600080fd5b60006111ac85828601610eab565b92505060206111bd85828601610e96565b9150509250929050565b6111d08161141a565b82525050565b6111e76111e28261141a565b6114c2565b82525050565b6111f68161142c565b82525050565b61120581611438565b82525050565b61121c61121782611438565b6114d4565b82525050565b600061122f60028361140f565b915061123a8261152c565b600282019050919050565b61124e81611462565b82525050565b61125d8161146c565b82525050565b600061126f82846111d6565b60148201915081905092915050565b600061128a828561120b565b60208201915061129a828461120b565b6020820191508190509392505050565b60006112b582611222565b91506112c1828561120b565b6020820191506112d1828461120b565b6020820191508190509392505050565b60006020820190506112f660008301846111c7565b92915050565b600060208201905061131160008301846111ed565b92915050565b600060208201905061132c60008301846111fc565b92915050565b600060808201905061134760008301876111fc565b61135460208301866111c7565b61136160408301856111ed565b61136e6060830184611245565b95945050505050565b600060a08201905061138c60008301886111fc565b61139960208301876111fc565b6113a660408301866111fc565b6113b36060830185611245565b6113c060808301846111c7565b9695505050505050565b60006080820190506113df60008301876111fc565b6113ec6020830186611254565b6113f960408301856111fc565b61140660608301846111fc565b95945050505050565b600081905092915050565b600061142582611442565b9050919050565b60008115159050919050565b6000819050919050565b600073ffffffffffffffffffffffffffffffffffffffff82169050919050565b6000819050919050565b600060ff82169050919050565b600061148482611462565b91507fffffffffffffffffffffffffffffffffffffffffffffffffffffffffffffffff8214156114b7576114b66114f0565b5b600182019050919050565b60006114cd826114de565b9050919050565b6000819050919050565b60006114e98261151f565b9050919050565b7f4e487b7100000000000000000000000000000000000000000000000000000000600052601160045260246000fd5b60008160601b9050919050565b7f1901000000000000000000000000000000000000000000000000000000000000600082015250565b61155e8161141a565b811461156957600080fd5b50565b6115758161142c565b811461158057600080fd5b50565b61158c81611438565b811461159757600080fd5b50565b6115a381611462565b81146115ae57600080fd5b50565b6115ba8161146c565b81146115c557600080fd5b5056fea264697066735822122026a2003901589887b9fe54ddd96d875500b756258246c835fa0b344c1b8ecaab64736f6c63430008040033",
  "linkReferences": {},
  "deployedLinkReferences": {}
}