{
  "_format": "hh-sol-artifact-1",
  "contractName": "KaliWhitelistManager",
  "sourceName": "contracts/KaliWhiteListManager.sol",
  "abi": [
    {
      "inputs": [],
      "stateMutability": "nonpayable",
      "type": "constructor"
    },
    {
      "inputs": [],
      "name": "InvalidSignature",
      "type": "error"
    },
    {
      "inputs": [],
      "name": "InvalidWhiteList",
      "type": "error"
    },
    {
      "inputs": [],
      "name": "NotOnWhitelist",
      "type": "error"
    },
    {
      "inputs": [],
      "name": "NotOperator",
      "type": "error"
    },
    {
      "inputs": [],
      "name": "SignatureExpired",
      "type": "error"
    },
    {
      "inputs": [],
      "name": "WhitelistClaimed",
      "type": "error"
    },
    {
      "anonymous": false,
      "inputs": [
        {
          "indexed": true,
          "internalType": "uint256",
          "name": "listId",
          "type": "uint256"
        },
        {
          "indexed": true,
          "internalType": "address",
          "name": "account",
          "type": "address"
        },
        {
          "indexed": false,
          "internalType": "bool",
          "name": "approved",
          "type": "bool"
        }
      ],
      "name": "AccountWhitelisted",
      "type": "event"
    },
    {
      "anonymous": false,
      "inputs": [
        {
          "indexed": true,
          "internalType": "uint256",
          "name": "listId",
          "type": "uint256"
        },
        {
          "indexed": false,
          "internalType": "bytes32",
          "name": "merkleRoot",
          "type": "bytes32"
        }
      ],
      "name": "MerkleRootSet",
      "type": "event"
    },
    {
      "anonymous": false,
      "inputs": [
        {
          "indexed": true,
          "internalType": "uint256",
          "name": "listId",
          "type": "uint256"
        },
        {
          "indexed": true,
          "internalType": "address",
          "name": "operator",
          "type": "address"
        }
      ],
      "name": "WhitelistCreated",
      "type": "event"
    },
    {
      "anonymous": false,
      "inputs": [
        {
          "indexed": true,
          "internalType": "uint256",
          "name": "listId",
          "type": "uint256"
        },
        {
          "indexed": true,
          "internalType": "address",
          "name": "account",
          "type": "address"
        }
      ],
      "name": "WhitelistJoined",
      "type": "event"
    },
    {
      "inputs": [],
      "name": "DOMAIN_SEPARATOR",
      "outputs": [
        {
          "internalType": "bytes32",
          "name": "",
          "type": "bytes32"
        }
      ],
      "stateMutability": "view",
      "type": "function"
    },
    {
      "inputs": [
        {
          "internalType": "address[]",
          "name": "accounts",
          "type": "address[]"
        },
        {
          "internalType": "bytes32",
          "name": "merkleRoot",
          "type": "bytes32"
        }
      ],
      "name": "createWhitelist",
      "outputs": [],
      "stateMutability": "nonpayable",
      "type": "function"
    },
    {
      "inputs": [
        {
          "internalType": "uint256",
          "name": "listId",
          "type": "uint256"
        },
        {
          "internalType": "address",
          "name": "account",
          "type": "address"
        }
      ],
      "name": "isWhitelisted",
      "outputs": [
        {
          "internalType": "bool",
          "name": "",
          "type": "bool"
        }
      ],
      "stateMutability": "view",
      "type": "function"
    },
    {
      "inputs": [
        {
          "internalType": "uint256",
          "name": "listId",
          "type": "uint256"
        },
        {
          "internalType": "address",
          "name": "account",
          "type": "address"
        },
        {
          "internalType": "bytes32[]",
          "name": "merkleProof",
          "type": "bytes32[]"
        }
      ],
      "name": "joinWhitelist",
      "outputs": [],
      "stateMutability": "nonpayable",
      "type": "function"
    },
    {
      "inputs": [],
      "name": "listCount",
      "outputs": [
        {
          "internalType": "uint256",
          "name": "",
          "type": "uint256"
        }
      ],
      "stateMutability": "view",
      "type": "function"
    },
    {
      "inputs": [
        {
          "internalType": "uint256",
          "name": "",
          "type": "uint256"
        }
      ],
      "name": "merkleRoots",
      "outputs": [
        {
          "internalType": "bytes32",
          "name": "",
          "type": "bytes32"
        }
      ],
      "stateMutability": "view",
      "type": "function"
    },
    {
      "inputs": [
        {
          "internalType": "uint256",
          "name": "",
          "type": "uint256"
        }
      ],
      "name": "operatorOf",
      "outputs": [
        {
          "internalType": "address",
          "name": "",
          "type": "address"
        }
      ],
      "stateMutability": "view",
      "type": "function"
    },
    {
      "inputs": [
        {
          "internalType": "uint256",
          "name": "listId",
          "type": "uint256"
        },
        {
          "internalType": "bytes32",
          "name": "merkleRoot",
          "type": "bytes32"
        }
      ],
      "name": "setMerkleRoot",
      "outputs": [],
      "stateMutability": "nonpayable",
      "type": "function"
    },
    {
      "inputs": [
        {
          "internalType": "uint256",
          "name": "listId",
          "type": "uint256"
        },
        {
          "internalType": "address",
          "name": "account",
          "type": "address"
        },
        {
          "internalType": "bool",
          "name": "approved",
          "type": "bool"
        },
        {
          "internalType": "uint256",
          "name": "deadline",
          "type": "uint256"
        },
        {
          "internalType": "uint8",
          "name": "v",
          "type": "uint8"
        },
        {
          "internalType": "bytes32",
          "name": "r",
          "type": "bytes32"
        },
        {
          "internalType": "bytes32",
          "name": "s",
          "type": "bytes32"
        }
      ],
      "name": "whitelistAccountBySig",
      "outputs": [],
      "stateMutability": "nonpayable",
      "type": "function"
    },
    {
      "inputs": [
        {
          "internalType": "uint256",
          "name": "listId",
          "type": "uint256"
        },
        {
          "internalType": "address[]",
          "name": "accounts",
          "type": "address[]"
        },
        {
          "internalType": "bool[]",
          "name": "approvals",
          "type": "bool[]"
        }
      ],
      "name": "whitelistAccounts",
      "outputs": [],
      "stateMutability": "nonpayable",
      "type": "function"
    },
    {
      "inputs": [
        {
          "internalType": "uint256",
          "name": "",
          "type": "uint256"
        },
        {
          "internalType": "address",
          "name": "",
          "type": "address"
        }
      ],
      "name": "whitelistedAccounts",
      "outputs": [
        {
          "internalType": "bool",
          "name": "",
          "type": "bool"
        }
      ],
      "stateMutability": "view",
      "type": "function"
    }
  ],
  "bytecode": "0x60c06040523480156200001157600080fd5b5046608081815250506200002a6200003f60201b60201c565b60a081815250506000600381905550620001cb565b60007f8b73c3c69bb8fe3d512ecc4cf759cc79239f7b179b0ffacaa9a75d522b39400f6040518060400160405280601481526020017f4b616c6957686974656c6973744d616e61676572000000000000000000000000815250805190602001207fc89efdaa54c0f20c7adf612882df0950f5a951637e0307cdcb4c672f298b8bc64630604051602001620000d895949392919062000126565b60405160208183030381529060405280519060200120905090565b620000fe8162000183565b82525050565b6200010f8162000197565b82525050565b6200012081620001c1565b82525050565b600060a0820190506200013d600083018862000104565b6200014c602083018762000104565b6200015b604083018662000104565b6200016a606083018562000115565b620001796080830184620000f3565b9695505050505050565b60006200019082620001a1565b9050919050565b6000819050919050565b600073ffffffffffffffffffffffffffffffffffffffff82169050919050565b6000819050919050565b60805160a051611580620001f160003960006104be0152600061048a01526115806000f3fe608060405234801561001057600080fd5b50600436106100a95760003560e01c806371c5ecb11161007157806371c5ecb11461013e5780637d22c35c1461016e578063b4c72a211461019e578063bcd521bc146101ba578063bf59594c146101ea578063f41875e114610206576100a9565b806318712c21146100ae5780631b68d10d146100ca57806324bed919146100e85780633644e51514610104578063659dec3a14610122575b600080fd5b6100c860048036038101906100c391906110f2565b610236565b005b6100d2610321565b6040516100df9190611376565b60405180910390f35b61010260048036038101906100fd9190611069565b610327565b005b61010c610486565b604051610119919061127e565b60405180910390f35b61013c60048036038101906101379190610e79565b6104e3565b005b61015860048036038101906101539190610efa565b610677565b604051610165919061127e565b60405180910390f35b61018860048036038101906101839190610f23565b61068f565b6040516101959190611263565b60405180910390f35b6101b860048036038101906101b39190610fcb565b6106f7565b005b6101d460048036038101906101cf9190610f23565b6108b1565b6040516101e19190611263565b60405180910390f35b61020460048036038101906101ff9190610f5f565b6108e0565b005b610220600480360381019061021b9190610efa565b610a8c565b60405161022d9190611248565b60405180910390f35b60008083815260200190815260200160002060009054906101000a900473ffffffffffffffffffffffffffffffffffffffff1673ffffffffffffffffffffffffffffffffffffffff163373ffffffffffffffffffffffffffffffffffffffff16146102cd576040517f7c214f0400000000000000000000000000000000000000000000000000000000815260040160405180910390fd5b806001600084815260200190815260200160002081905550817fb04b7d6145a7588fdcf339a22877d5965f861c171204fc37688058c5f6c06d3b82604051610315919061127e565b60405180910390a25050565b60035481565b60008086815260200190815260200160002060009054906101000a900473ffffffffffffffffffffffffffffffffffffffff1673ffffffffffffffffffffffffffffffffffffffff163373ffffffffffffffffffffffffffffffffffffffff16146103be576040517f7c214f0400000000000000000000000000000000000000000000000000000000815260040160405180910390fd5b60005b8484905081101561047e5761047186868684818110610409577f4e487b7100000000000000000000000000000000000000000000000000000000600052603260045260246000fd5b905060200201602081019061041e9190610e50565b858585818110610457577f4e487b7100000000000000000000000000000000000000000000000000000000600052603260045260246000fd5b905060200201602081019061046c9190610ed1565b610abf565b80806001019150506103c1565b505050505050565b60007f000000000000000000000000000000000000000000000000000000000000000046146104bc576104b7610b7b565b6104de565b7f00000000000000000000000000000000000000000000000000000000000000005b905090565b600360008154809291906104f6906113fb565b9190505550600060035490503360008083815260200190815260200160002060006101000a81548173ffffffffffffffffffffffffffffffffffffffff021916908373ffffffffffffffffffffffffffffffffffffffff160217905550600084849050146106185760005b848490508110156105d2576105c5828686848181106105a9577f4e487b7100000000000000000000000000000000000000000000000000000000600052603260045260246000fd5b90506020020160208101906105be9190610e50565b6001610abf565b8080600101915050610561565b503373ffffffffffffffffffffffffffffffffffffffff16817fcb35a830e6cf5dc5248b3b7114d1b7945368ab798d358d784789259c514cd5e560405160405180910390a35b6000821461067157816001600083815260200190815260200160002081905550807fb04b7d6145a7588fdcf339a22877d5965f861c171204fc37688058c5f6c06d3b83604051610668919061127e565b60405180910390a25b50505050565b60016020528060005260406000206000915090505481565b60006002600084815260200190815260200160002060008373ffffffffffffffffffffffffffffffffffffffff1673ffffffffffffffffffffffffffffffffffffffff16815260200190815260200160002060009054906101000a900460ff16905092915050565b83421115610731576040517f0819bdcd00000000000000000000000000000000000000000000000000000000815260040160405180910390fd5b600061073b610486565b7f223305279dc2fe45bc45ddc2da120130bfdb577779bce6d83f41e5f7190701f98888886040516020016107729493929190611299565b60405160208183030381529060405280519060200120604051602001610799929190611211565b6040516020818303038152906040528051906020012090506000600182868686604051600081526020016040526040516107d69493929190611331565b6020604051602081039080840390855afa1580156107f8573d6000803e3d6000fd5b5050506020604051035190506000808a815260200190815260200160002060009054906101000a900473ffffffffffffffffffffffffffffffffffffffff1673ffffffffffffffffffffffffffffffffffffffff168173ffffffffffffffffffffffffffffffffffffffff161461089b576040517f8baa579f00000000000000000000000000000000000000000000000000000000815260040160405180910390fd5b6108a6898989610abf565b505050505050505050565b60026020528160005260406000206020528060005260406000206000915091509054906101000a900460ff1681565b6108ea848461068f565b15610921576040517fafb3768900000000000000000000000000000000000000000000000000000000815260040160405180910390fd5b6000801b60016000868152602001908152602001600020541415610971576040517fccfdc84300000000000000000000000000000000000000000000000000000000815260040160405180910390fd5b610a0060016000868152602001908152602001600020548460405160200161099991906111ca565b60405160208183030381529060405280519060200120848480806020026020016040519081016040528093929190818152602001838360200280828437600081840152601f19601f82011690508083019250505050505050610c2d9092919063ffffffff16565b610a36576040517f522fc3bd00000000000000000000000000000000000000000000000000000000815260040160405180910390fd5b610a4284846001610abf565b8273ffffffffffffffffffffffffffffffffffffffff16847fb3d20bca54d4b069c344c4134a989b1c0857b7062c8ee765edacbceb682c640260405160405180910390a350505050565b60006020528060005260406000206000915054906101000a900473ffffffffffffffffffffffffffffffffffffffff1681565b806002600085815260200190815260200160002060008473ffffffffffffffffffffffffffffffffffffffff1673ffffffffffffffffffffffffffffffffffffffff16815260200190815260200160002060006101000a81548160ff0219169083151502179055508173ffffffffffffffffffffffffffffffffffffffff16837f6c013c340e1ef4f57c40269d3ed32d24f1a8db072b0158815d41353e4ae65ed683604051610b6e9190611263565b60405180910390a3505050565b60007f8b73c3c69bb8fe3d512ecc4cf759cc79239f7b179b0ffacaa9a75d522b39400f6040518060400160405280601481526020017f4b616c6957686974656c6973744d616e61676572000000000000000000000000815250805190602001207fc89efdaa54c0f20c7adf612882df0950f5a951637e0307cdcb4c672f298b8bc64630604051602001610c129594939291906112de565b60405160208183030381529060405280519060200120905090565b60008082905060005b8551811015610cfb576000868281518110610c7a577f4e487b7100000000000000000000000000000000000000000000000000000000600052603260045260246000fd5b60200260200101519050808311610cbb578281604051602001610c9e9291906111e5565b604051602081830303815290604052805190602001209250610ce7565b8083604051602001610cce9291906111e5565b6040516020818303038152906040528051906020012092505b508080610cf3906113fb565b915050610c36565b508381149150509392505050565b600081359050610d18816114d7565b92915050565b60008083601f840112610d3057600080fd5b8235905067ffffffffffffffff811115610d4957600080fd5b602083019150836020820283011115610d6157600080fd5b9250929050565b60008083601f840112610d7a57600080fd5b8235905067ffffffffffffffff811115610d9357600080fd5b602083019150836020820283011115610dab57600080fd5b9250929050565b60008083601f840112610dc457600080fd5b8235905067ffffffffffffffff811115610ddd57600080fd5b602083019150836020820283011115610df557600080fd5b9250929050565b600081359050610e0b816114ee565b92915050565b600081359050610e2081611505565b92915050565b600081359050610e358161151c565b92915050565b600081359050610e4a81611533565b92915050565b600060208284031215610e6257600080fd5b6000610e7084828501610d09565b91505092915050565b600080600060408486031215610e8e57600080fd5b600084013567ffffffffffffffff811115610ea857600080fd5b610eb486828701610d1e565b93509350506020610ec786828701610e11565b9150509250925092565b600060208284031215610ee357600080fd5b6000610ef184828501610dfc565b91505092915050565b600060208284031215610f0c57600080fd5b6000610f1a84828501610e26565b91505092915050565b60008060408385031215610f3657600080fd5b6000610f4485828601610e26565b9250506020610f5585828601610d09565b9150509250929050565b60008060008060608587031215610f7557600080fd5b6000610f8387828801610e26565b9450506020610f9487828801610d09565b935050604085013567ffffffffffffffff811115610fb157600080fd5b610fbd87828801610db2565b925092505092959194509250565b600080600080600080600060e0888a031215610fe657600080fd5b6000610ff48a828b01610e26565b97505060206110058a828b01610d09565b96505060406110168a828b01610dfc565b95505060606110278a828b01610e26565b94505060806110388a828b01610e3b565b93505060a06110498a828b01610e11565b92505060c061105a8a828b01610e11565b91505092959891949750929550565b60008060008060006060868803121561108157600080fd5b600061108f88828901610e26565b955050602086013567ffffffffffffffff8111156110ac57600080fd5b6110b888828901610d1e565b9450945050604086013567ffffffffffffffff8111156110d757600080fd5b6110e388828901610d68565b92509250509295509295909350565b6000806040838503121561110557600080fd5b600061111385828601610e26565b925050602061112485828601610e11565b9150509250929050565b6111378161139c565b82525050565b61114e6111498261139c565b611444565b82525050565b61115d816113ae565b82525050565b61116c816113ba565b82525050565b61118361117e826113ba565b611456565b82525050565b6000611196600283611391565b91506111a1826114ae565b600282019050919050565b6111b5816113e4565b82525050565b6111c4816113ee565b82525050565b60006111d6828461113d565b60148201915081905092915050565b60006111f18285611172565b6020820191506112018284611172565b6020820191508190509392505050565b600061121c82611189565b91506112288285611172565b6020820191506112388284611172565b6020820191508190509392505050565b600060208201905061125d600083018461112e565b92915050565b60006020820190506112786000830184611154565b92915050565b60006020820190506112936000830184611163565b92915050565b60006080820190506112ae6000830187611163565b6112bb602083018661112e565b6112c86040830185611154565b6112d560608301846111ac565b95945050505050565b600060a0820190506112f36000830188611163565b6113006020830187611163565b61130d6040830186611163565b61131a60608301856111ac565b611327608083018461112e565b9695505050505050565b60006080820190506113466000830187611163565b61135360208301866111bb565b6113606040830185611163565b61136d6060830184611163565b95945050505050565b600060208201905061138b60008301846111ac565b92915050565b600081905092915050565b60006113a7826113c4565b9050919050565b60008115159050919050565b6000819050919050565b600073ffffffffffffffffffffffffffffffffffffffff82169050919050565b6000819050919050565b600060ff82169050919050565b6000611406826113e4565b91507fffffffffffffffffffffffffffffffffffffffffffffffffffffffffffffffff82141561143957611438611472565b5b600182019050919050565b600061144f82611460565b9050919050565b6000819050919050565b600061146b826114a1565b9050919050565b7f4e487b7100000000000000000000000000000000000000000000000000000000600052601160045260246000fd5b60008160601b9050919050565b7f1901000000000000000000000000000000000000000000000000000000000000600082015250565b6114e08161139c565b81146114eb57600080fd5b50565b6114f7816113ae565b811461150257600080fd5b50565b61150e816113ba565b811461151957600080fd5b50565b611525816113e4565b811461153057600080fd5b50565b61153c816113ee565b811461154757600080fd5b5056fea26469706673582212208f22399322829e52b85d5a175400528b8b15b859ffc8933ccba4cbc3fa88309564736f6c63430008040033",
  "linkReferences": {},
  "deployedLinkReferences": {}
}